:100000000C942A000C9447000C9447000C94470071
:100010000C9447000C9447000C9447000C94AB04DC
:100020000C9447000C9447000C9447000C94470034
:100030000C9447000C94A6080C9492080C9447006A
:100040000C9447000C9447000C9447000C94470014
:100050000C94470011241FBECFE5D8E0DEBFCDBF12
:1000600010E0A0E6B0E0E8EBF1E102C005900D92EF
:10007000A23FB107D9F727E0A2EFB0E001C01D927F
:10008000A335B207E1F70E9415030C94DA080C942B
:100090000000442379F1413009F05FC0813079F0EC
:1000A00028F08230A9F08330E1F008952AB381E08E
:1000B00090E001C0880F6A95EAF7822B2CC027B325
:1000C00081E090E001C0880F6A95EAF7822B2EC08C
:1000D00024B381E090E001C0880F6A95EAF7822B93
:1000E00030C021B381E090E001C0880F6A95EAF743
:1000F000822B32C0813089F028F08230C9F0833001
:1001000011F108952AB381E090E001C0880F6A954B
:10011000EAF7809582238ABB089527B381E090E0B7
:1001200001C0880F6A95EAF78095822387BB0895FE
:1001300024B381E090E001C0880F6A95EAF78095CA
:10014000822384BB089521B381E090E001C0880F31
:100150006A95EAF78095822381BB0895442379F15B
:10016000413009F05FC0813079F028F08230A9F089
:100170008330E1F008952BB381E090E001C0880F57
:100180006A95EAF7822B2CC028B381E090E001C089
:10019000880F6A95EAF7822B2EC025B381E090E0A4
:1001A00001C0880F6A95EAF7822B30C022B381E044
:1001B00090E001C0880F6A95EAF7822B32C0813047
:1001C00089F028F08230C9F0833011F108952BB303
:1001D00081E090E001C0880F6A95EAF7809582235C
:1001E0008BBB089528B381E090E001C0880F6A9529
:1001F000EAF78095822388BB089525B381E090E0DB
:1002000001C0880F6A95EAF78095822385BB08951F
:1002100022B381E090E001C0880F6A95EAF78095EB
:10022000822382BB0895CF93DF93EC010E9498064E
:100230008091F2009091F300892B31F487EF90E0E8
:100240009093F3008093F2002091F4003091F50038
:10025000C9018C0F9D1F8B3D45E0940770F4281752
:10026000390758F4C091F200D091F300C20FD31FA8
:100270009093F5008093F40002C0C0E0D0E00E94AB
:100280004A07CE01DF91CF9108950895CF93C82FEB
:1002900040E061E081E00E94AE0040E062E081E089
:1002A0000E94AE0040E063E081E00E94AE008BB3AC
:1002B0009C2F907F8F70892B8BBB41E063E081E0A6
:1002C0000E94AE008FE99FE00197F1F700C00000A7
:1002D00040E063E081E00E94AE002BB330E1C39FB9
:1002E000C0011124922F9F70892B8BBB41E063E0EA
:1002F00081E00E94AE008FE99FE00197F1F700C016
:10030000000040E063E081E00E94AE008FE19EE4E7
:100310000197F1F700C00000CF91089541E061E03E
:1003200081E00E94490041E062E081E00E944900D2
:1003300041E063E081E00E94490041E064E080E048
:100340000E94490041E065E080E00E94490041E0F0
:1003500066E080E00E94490041E067E080E00E94A2
:1003600049002FEF81EE94E0215080409040E1F76A
:1003700000C0000083E30E94460182E30E94460120
:1003800088E20E9446018CE00E94460181E00E94C2
:10039000460186E00E94460182E00C944601CF931C
:1003A000C82F41E061E081E00E94AE0040E062E0E1
:1003B00081E00E94AE0040E063E081E00E94AE0078
:1003C0008C2F807F8BBB41E063E081E00E94AE0018
:1003D0008FE99FE00197F1F700C0000040E063E083
:1003E00081E00E94AE00C295C07FCBBB41E063E0DC
:1003F00081E00E94AE008FE99FE00197F1F700C015
:10040000000040E063E081E00E94AE008FE19EE4E6
:100410000197F1F700C00000CF9108950F931F934B
:10042000CF938C01C0E0F801EC0FF11D808188238F
:1004300021F00E94CF01CF5FF6CFCF911F910F9196
:100440000895CF93DF9300D0CDB7DEB790E89983BE
:1004500090EC9A83FE01E80FF11D8181860F0F90C9
:100460000F90DF91CF910C94460181E00C944601EE
:10047000FC010396928381832FEF3FEF3483238324
:10048000968385839087878310820895FC01118667
:1004900010860895CF93DF939C01FB01DC01119638
:1004A000CD91DC911297D383C2838C819D819583FA
:1004B00084838C819D81DC0113967C936E931297CB
:1004C0007D836C8331872087F90180818F5F8083F2
:1004D000DF91CF9108950F931F93CF93DF938C01FA
:1004E000FB01808191818F3F2FEF920721F4E8017A
:1004F000AF81B8850EC0D801139612962D913C910C
:100500001397E901488159818417950710F0D901A3
:10051000F4CF12968D919C91139793838283EC0173
:10052000FD83EC83B583A4831396FC93EE9312971B
:1005300011870087F80180818F5F8083DF91CF91E1
:100540001F910F910895CF93DF93FC01A085B18592
:100550008281938124813581EC013D832C83C48188
:10056000D5819B838A8311968D919C911297E81770
:10057000F90721F41296DC93CE9311971186108619
:100580008C9181508C938C91DF91CF9108950E9432
:100590008E010E9467080E948B080E94AE040E9490
:1005A000C8040E94350280E690E00E940E0280910D
:1005B000D8069091D9060E941108E9CF0E948E08B2
:1005C0008093DA0683E090E00E94B907F7CF0E949B
:1005D000350287E690E00E940E0260E081E00E9412
:1005E000210280E790E00E940E020E948E08809314
:1005F000DA068AE090E00E94B907E9CF0E9435024E
:100600008CE790E00E940E0260E081E00E942102EF
:1006100084E890E00E940E028091DA060E94CC04E9
:1006200085E090E00E94B907E9CFE090D806F0900D
:10063000D90604E020E030E042E350E06CE870E0EE
:1006400087EC92E00E946C05E090D606F090D70609
:1006500001E020E030E042E350E06BE970E08EED35
:1006600092E00E946C05E090D406F090D50603E07D
:1006700020E030E042E350E06BEA70E08EEF92E081
:100680000E946C05E090D206F090D30602E020E0D4
:1006900030E042E350E06DEC70E087EE92E00E94C3
:1006A0006C050E946E06FFCF31E1FC01308331976B
:1006B00022E220833197A3E3A083319760833197AF
:1006C000708331971082319760E860833197108290
:1006D000319762E06083319763E06083319764E033
:1006E0006083319765E06083319766E0608331977E
:1006F00067E06083319768E06083319769E06083E9
:10070000319760E1608331973083319732E13083F4
:10071000319733E13083319734E13083319735E1DC
:100720003083319736E13083319737E13083319729
:1007300038E13083319739E13083319730E23083CB
:10074000319731E2308331972083319723E2208340
:100750003197408331975083319726E22083319738
:1007600027E22083319728E22083319729E22083F2
:10077000319720E32083319721E3208386970895E2
:1007800081E68BBD87EA8ABD8BE08EBD89B780612B
:1007900089BFA0913F07B0914007CD91CDBFDD91BA
:1007A000DEBFFF91EF91DF91CF91BF91AF919F910C
:1007B0008F917F916F915F914F913F912F911F91F9
:1007C0000F91FF90EF90DF90CF90BF90AF909F90F0
:1007D0008F907F906F905F904F903F902F901F90E1
:1007E0000F900FBE0F90089581E008950F920FB6FD
:1007F000F8940F921F9211242F923F924F925F9282
:100800006F927F928F929F92AF92BF92CF92DF9220
:10081000EF92FF920F931F932F933F934F935F930A
:100820006F937F938F939F93AF93BF93CF93DF93F8
:10083000EF93FF93A0913F07B09140070DB60D9243
:100840000EB60D920E94CE07A0913F07B0914007CF
:10085000CD91CDBFDD91DEBFFF91EF91DF91CF91C3
:10086000BF91AF919F918F917F916F915F914F91C8
:100870003F912F911F910F91FF90EF90DF90CF90BC
:10088000BF90AF909F908F907F906F905F904F90B0
:100890003F902F901F900F900FBE0F9008950F92D2
:1008A0000FB6F8940F921F9211242F923F924F92FD
:1008B0005F926F927F928F929F92AF92BF92CF92F0
:1008C000DF92EF92FF920F931F932F933F934F93DB
:1008D0005F936F937F938F939F93AF93BF93CF93C8
:1008E000DF93EF93FF93A0913F07B09140070DB6C0
:1008F0000D920EB60D920E949E0681110E94CE07A7
:10090000A0913F07B0914007CD91CDBFDD91DEBFF3
:10091000FF91EF91DF91CF91BF91AF919F918F9117
:100920007F916F915F914F913F912F911F910F9107
:10093000FF90EF90DF90CF90BF90AF909F908F90FF
:100940007F906F905F904F903F902F901F900F90EF
:100950000FBE0F9008950E944F0418956F986E9ADD
:100960006D9A6C9A6B986A9841E064E081E00E940D
:10097000490041E065E081E00E94490040E066E016
:1009800081E00E94490041E067E081E00C94490069
:1009900069986898709A08958FB9779BFECF0895EB
:1009A000E0910707F09108078081811103C08FEF64
:1009B0009FEF0CC0E0910707F09108070580F681D2
:1009C000E02D0680F781E02D828193819093DF06F0
:1009D0008093DE060895FF920F931F93CF93DF93CA
:1009E000EC01F62E0091E6061091E70680913F0794
:1009F0009091400702960E94A302CF3F8FEFD80745
:100A000089F4FF2079F060913F07709140076E5F95
:100A10007F4F89EE96E0DF91CF911F910F91FF906C
:100A20000C944A02C00FD11FE0913F07F09140079C
:100A3000D383C28360913F0770914007C017D107ED
:100A400068F480910507909106076E5F7F4FDF91F4
:100A5000CF911F910F91FF900C946B02809107072B
:100A6000909108076E5F7F4F0E946B028091DE06B7
:100A70009091DF06C817D90720F4D093DF06C09302
:100A8000DE06DF91CF911F910F91FF900895809125
:100A9000F2068823E1F30FB6F8940F92E091F8067E
:100AA000F091F906C681D781CE0102960E94A30279
:100AB0008091E80681508093E8068091F20681508B
:100AC0008093F2060F900FBE8F89988D0E9445018A
:100AD000CE010E944501DBCF4F925F926F927F92D1
:100AE0008F929F92AF92BF92CF92DF92EF92FF923E
:100AF0000F93CF93DF934C016B015A012901CA0177
:100B00000E9413013C01892B09F4D7C088E290E0D0
:100B10000E941301EC01009789F0788E6F8A21E022
:100B2000A21AB108A60CB71CC114D104C9F0BC01AB
:100B3000675E7F4FF601C601089607C0C3010E9499
:100B40004501BBC0E817F90749F09F014191DB015E
:100B50004D93BD01D9012C912111F4CF18A201C0F0
:100B6000198E043008F003E00E8B6E01B2E0CB0E5C
:100B7000D11CC6010E944602CE010C960E9446027C
:100B8000D987C88784E090E0801B91099D878C8776
:100B9000DB8BCA8B1AA219A21BA21CA21DA21EA229
:100BA0001FA2A201B401C5010E9454039983888346
:100BB000E114F10419F0F701D183C0830FB6F89462
:100BC0000F928091E8068F5F8093E80680913F073F
:100BD00090914007892BD1F5D0934007C0933F07F0
:100BE0008091E806813009F041C08BE197E00E94D6
:100BF000380284E297E00E9438028DE297E00E947A
:100C0000380286E397E00E94380282E197E00E9472
:100C1000380289E097E00E9438028CEF96E00E944B
:100C2000380283EF96E00E94380289EE96E00E9437
:100C3000380282E197E0909308078093070789E0E4
:100C400097E0909306078093050710C08091E40613
:100C500081110CC0E0913F07F091400796898E8981
:100C6000891720F0D0934007C0933F078091E0069A
:100C70008F5F8093E0068E899091E506981710F4B7
:100C80008093E506F9E08F9FC0011124B601855ECF
:100C9000984F0E944A020F900FBE8091E40688236D
:100CA00051F0E0913F07F091400796898E8998179F
:100CB00010F40E94F60381E001C08FEFDF91CF9125
:100CC0000F91FF90EF90DF90CF90BF90AF909F90EB
:100CD0008F907F906F905F904F900895EF92FF926A
:100CE0000F938CEDE82E86E0F82E00E020E030E057
:100CF00042E350E06DEE70E087E495E00E946C0501
:100D0000813091F4F8942FEF3FEF3093DF0620937A
:100D1000DE068093E4061092E7061092E6060F9135
:100D2000FF90EF900C94C0030F91FF90EF90089507
:100D30008091DB068F5F8093DB060895CF92DF9270
:100D4000EF92FF920F931F93CF93DF938091DB0677
:100D500081118CC00091E6061091E7060F5F1F4FCE
:100D60001093E7060093E60601151105B9F480918A
:100D700007079091080720910507309106073093E7
:100D80000807209307079093060780930507809133
:100D9000E1068F5F8093E1060E94D0048091DE0619
:100DA0009091DF06C0E00817190708F44FC0D9E09A
:100DB000E0910707F09108078081811103C08FEF50
:100DC0009FEF11C0E0910707F09108070580F681B9
:100DD000E02DE680F780D70112968D919C911397B4
:100DE0000817190728F49093DF068093DE062EC0BB
:100DF0006701B2E0CB0ED11CC6010E94A302F7012D
:100E000084899589892B21F0C7010C960E94A30241
:100E1000D70156968C919091E506981710F480931F
:100E2000E506D89FC0011124B601855E984F0E9447
:100E30004A02E0913F07F0914007D70156969C91F6
:100E40008689981708F4B4CFC1E0B2CFE0913F078C
:100E5000F0914007E689B9E0EB9FF0011124E55ECF
:100E6000F84F8081823040F0C1E006C08091E306F7
:100E70008F5F8093E306C0E08091E2068111C1E0BC
:100E80008C2FDF91CF911F910F91FF90EF90DF900A
:100E9000CF900895EF92FF920F931F93CF93DF931C
:100EA0000FB6F8940F928091DB0681508093DB0699
:100EB0008091DB06882311F080E052C08091E80623
:100EC0008823D1F3C0E0D0E089E0F82EEE24E3944B
:100ED0008091FC06882351F1E0910107F09102070F
:100EE000C681D781CE010C960E94A3028E010E5FAF
:100EF0001F4FC8010E94A3028E899091E5069817A2
:100F000010F48093E506F89EC0011124B801855EB7
:100F1000984F0E944A02E0913F07F09140079E8956
:100F200086899817A8F2E092E206D2CFCD2B11F075
:100F30000E94D004C091E306CC2351F0D1E00E947E
:100F40009E068111D093E206C150C9F71092E306C4
:100F50008091E206882309F4AFCF0E94F60381E076
:100F60000F900FBEDF91CF911F910F91FF90EF90E7
:100F70000895CF93DF93EC01892B19F40E94F603B7
:100F80000AC00E94980660E0CE010E94EB040E9415
:100F90004A07882399F3DF91CF9108958091DB066A
:100FA000882321F081E08093E20608951092E20602
:100FB0008091E50669E0482F50E0649F9001659FAD
:100FC000300D1124F901E55EF84F9081911102C0B6
:100FD0008150F1CFA181B28112960D90BC91A02DCC
:100FE000B283A183225E384FA217B30731F4129661
:100FF0002D913C9113973283218399E0949FF001C6
:10100000959FF00D1124E55EF84F0180F281E02DEF
:10101000268137813093400720933F078093E50670
:1010200008950F931F93CF93DF93EC010FB6F894BD
:101030000F92892B21F4C0913F07D09140078E0178
:101040000E5F1F4FC8010E94A3028C899D89892BC6
:1010500021F0CE010C960E94A302B80189EE96E021
:101060000E944A028FA1813009F41FA20F900FBE87
:101070008091E406882339F00FB6F8940F920E940D
:10108000D0040F900FBE80913F0790914007C81782
:10109000D907C1F48091E406882319F00E94F60371
:1010A00011C09091E9068091E806981305C010924E
:1010B000400710923F0706C0DF91CF911F910F911B
:1010C0000C94CE07DF91CF911F910F9108951CB81A
:1010D00080B5806880BD80B58F7B80BD80B58F7DF9
:1010E00080BD80B58F7E80BD80B5877F80BD80B597
:1010F000846080BD80B5826080BD55985798539AB2
:10110000549A41E061E083E00E94490040E060E0E1
:1011100083E00C94490087E689B908955F9BFECF70
:101120008CB108951F920F920FB60F9211248F93D6
:101130009F938CE290E090934407809343079F91A4
:101140008F910F900FBE0F901F9018951F920F92C6
:101150000FB60F9211242F933F934F935F936F938A
:101160007F938F939F93AF93BF93CF93DF93EF932F
:10117000FF938CE290E09093420780934107C091E7
:101180004507D09146070E948E08FE010995FF9100
:10119000EF91DF91CF91BF91AF919F918F917F910F
:1011A0006F915F914F913F912F910F900FBE0F90D4
:0811B0001F901895F894FFCF81
:1011B8005441534B5F49004C4544204F4E3A4F0031
:1011C8004C454420434C4F53453A43004C45443129
:1011D8003A2031004C4544323A203200696E697435
:1011E80069616C697A6174696F6E0073656C6563B7
:1011F8007420796F7572206C6564005350492054CF
:1012080072616E736D6974207468652073656C65AE
:101218006374696F6E206F66206C65640073656C1B
:1012280065637420746865206F7065726174696F96
:101238006E206F6620746865206C65640049444CB4
:0212480045005F
:00000001FF
