S013000052544F535F4D61737465722E73726563FE
S11300000C942A000C9447000C9447000C9447006D
S11300100C9447000C9447000C9447000C94C104C2
S11300200C9447000C9447000C9447000C94470030
S11300300C9447000C94630B0C944F0B0C944700E6
S11300400C9447000C9447000C9447000C94470010
S11300500C94470011241FBECFE5D8E0DEBFCDBF0E
S113006010E0A0E6B0E0E4E4F7E102C005900D92F0
S1130070AC3EB107D9F727E0ACEEB0E001C01D9269
S1130080AF34B207E1F70E942B030C94A00B0C943D
S11300900000442379F1413009F05FC0813079F0E8
S11300A028F08230A9F08330E1F008952AB381E08A
S11300B090E001C0880F6A95EAF7822B2CC027B321
S11300C081E090E001C0880F6A95EAF7822B2EC088
S11300D024B381E090E001C0880F6A95EAF7822B8F
S11300E030C021B381E090E001C0880F6A95EAF73F
S11300F0822B32C0813089F028F08230C9F08330FD
S113010011F108952AB381E090E001C0880F6A9547
S1130110EAF7809582238ABB089527B381E090E0B3
S113012001C0880F6A95EAF78095822387BB0895FA
S113013024B381E090E001C0880F6A95EAF78095C6
S1130140822384BB089521B381E090E001C0880F2D
S11301506A95EAF78095822381BB0895442379F157
S1130160413009F05FC0813079F028F08230A9F085
S11301708330E1F008952BB381E090E001C0880F53
S11301806A95EAF7822B2CC028B381E090E001C085
S1130190880F6A95EAF7822B2EC025B381E090E0A0
S11301A001C0880F6A95EAF7822B30C022B381E040
S11301B090E001C0880F6A95EAF7822B32C0813043
S11301C089F028F08230C9F0833011F108952BB3FF
S11301D081E090E001C0880F6A95EAF78095822358
S11301E08BBB089528B381E090E001C0880F6A9525
S11301F0EAF78095822388BB089525B381E090E0D7
S113020001C0880F6A95EAF78095822385BB08951B
S113021022B381E090E001C0880F6A95EAF78095E7
S1130220822382BB0895CF93DF93EC010E94C2081E
S11302308091EC009091ED00892B31F481EF90E0F6
S11302409093ED008093EC002091EE003091EF004C
S1130250C9018C0F9D1F8B3D45E0940770F428174E
S1130260390758F4C091EC00D091ED00C20FD31FB0
S11302709093EF008093EE0002C0C0E0D0E00E94B3
S11302807409CE01DF91CF9108950895CF93C82FBB
S113029040E061E081E00E94AE0040E062E081E085
S11302A00E94AE0040E063E081E00E94AE008BB3A8
S11302B09C2F907F8F70892B8BBB41E063E081E0A2
S11302C00E94AE008FE99FE00197F1F700C00000A3
S11302D040E063E081E00E94AE002BB330E1C39FB5
S11302E0C0011124922F9F70892B8BBB41E063E0E6
S11302F081E00E94AE008FE99FE00197F1F700C012
S1130300000040E063E081E00E94AE008FE19EE4E3
S11303100197F1F700C00000CF91089541E061E03A
S113032081E00E94490041E062E081E00E944900CE
S113033041E063E081E00E94490041E064E080E044
S11303400E94490041E065E080E00E94490041E0EC
S113035066E080E00E94490041E067E080E00E949E
S113036049002FEF81EE94E0215080409040E1F766
S113037000C0000083E30E94460182E30E9446011C
S113038088E20E9446018CE00E94460181E00E94BE
S1130390460186E00E94460182E00C944601CF9318
S11303A0C82F41E061E081E00E94AE0040E062E0DD
S11303B081E00E94AE0040E063E081E00E94AE0074
S11303C08C2F807F8BBB41E063E081E00E94AE0014
S11303D08FE99FE00197F1F700C0000040E063E07F
S11303E081E00E94AE00C295C07FCBBB41E063E0D8
S11303F081E00E94AE008FE99FE00197F1F700C011
S1130400000040E063E081E00E94AE008FE19EE4E2
S11304100197F1F700C00000CF9108950F931F9347
S1130420CF938C01C0E0F801EC0FF11D808188238B
S113043021F00E94CF01CF5FF6CFCF911F910F9192
S11304400895CF93DF9300D0CDB7DEB790E89983BA
S113045090EC9A83FE01E80FF11D8181860F0F90C5
S11304600F90DF91CF910C94460181E00C944601EA
S1130470FC010396928381832FEF3FEF3483238320
S1130480968385839087878310820895FC01118663
S113049010860895CF93DF939C01FB01DC01119634
S11304A0CD91DC911297D383C2838C819D819583F6
S11304B084838C819D81DC0113967C936E931297C7
S11304C07D836C8331872087F90180818F5F8083EE
S11304D0DF91CF9108950F931F93CF93DF938C01F6
S11304E0FB01808191818F3F2FEF920721F4E80176
S11304F0AF81B8850EC0D801139612962D913C9108
S11305001397E901488159818417950710F0D9019F
S1130510F4CF12968D919C91139793838283EC016F
S1130520FD83EC83B583A4831396FC93EE93129717
S113053011870087F80180818F5F8083DF91CF91DD
S11305401F910F910895CF93DF93FC01A085B1858E
S11305508281938124813581EC013D832C83C48184
S1130560D5819B838A8311968D919C911297E8176C
S1130570F90721F41296DC93CE9311971186108615
S11305808C9181508C938C91DF91CF9108950E942E
S11305908E010E94240B0E94480B0E94D8060E94E0
S11305A0F2068091D4069091D5060E943B0AEFCFC3
S11305B043E060E081E00E9494059093CD0680932F
S11305C0CC060E94350280E690E00E940E0260E0B4
S11305D081E00E94210288E690E00E940E020E94BF
S11305E04B0B8093D60620E040E050E060E070E0E2
S11305F08091CC069091CD060E94BC0584EF91E0D9
S11306000E94E309DECF8091D6060E94F6068AE0B6
S113061090E00E94E309F7CF6FEF7FEF8091CC0663
S11306209091CD060E9452060E94350280E790E028
S11306300E940E0260E081E00E94210289E790E0BE
S11306400E940E020E944B0B8093D6068EEE92E01F
S11306500E94E309E1CFE090D406F090D50604E0CF
S113066020E030E042E350E065E870E087EC92E09F
S11306700E949607E090D206F090D30602E020E0B4
S113068030E042E350E064E970E088ED92E00E94DB
S11306909607E090D006F090D10603E020E030E029
S11306A042E350E064EA70E083E093E00E9496073E
S11306B0E090CE06F090CF0601E020E030E042E387
S11306C050E066EC70E08CE093E00E9496070E9494
S11306D09808FFCF31E1FC013083319722E2208377
S11306E03197A3E3A0833197608331977083319767
S11306F01082319760E8608331971082319762E00D
S11307006083319763E06083319764E0608331975D
S113071065E06083319766E06083319767E06083CA
S1130720319768E06083319769E06083319760E1D5
S1130730608331973083319732E13083319733E1ED
S11307403083319734E13083319735E13083319709
S113075036E13083319737E13083319738E13083A4
S1130760319739E13083319730E23083319731E288
S1130770308331972083319723E22083319740835C
S113078031975083319726E22083319727E22083E3
S1130790319728E22083319729E22083319720E39F
S11307A02083319721E320838697089589E08BBDC8
S11307B083EC8ABD8BE08EBD89B7806189BFA0912F
S11307C03B07B0913C07CD91CDBFDD91DEBFFF91DA
S11307D0EF91DF91CF91BF91AF919F918F917F91D5
S11307E06F915F914F913F912F911F910F91FF90C6
S11307F0EF90DF90CF90BF90AF909F908F907F90BD
S11308006F905F904F903F902F901F900F900FBE6E
S11308100F90089581E008950F920FB6F8940F9207
S11308201F9211242F923F924F925F926F927F9268
S11308308F929F92AF92BF92CF92DF92EF92FF92EC
S11308400F931F932F933F934F935F936F937F93D4
S11308508F939F93AF93BF93CF93DF93EF93FF93C4
S1130860A0913B07B0913C070DB60D920EB60D92C8
S11308700E94F809A0913B07B0913C07CD91CDBFF0
S1130880DD91DEBFFF91EF91DF91CF91BF91AF91E9
S11308909F918F917F916F915F914F913F912F9194
S11308A01F910F91FF90EF90DF90CF90BF90AF908A
S11308B09F908F907F906F905F904F903F902F907C
S11308C01F900F900FBE0F9008950F920FB6F894DB
S11308D00F921F9211242F923F924F925F926F9228
S11308E07F928F929F92AF92BF92CF92DF92EF92BC
S11308F0FF920F931F932F933F934F935F936F93A5
S11309007F938F939F93AF93BF93CF93DF93EF9393
S1130910FF93A0913B07B0913C070DB60D920EB624
S11309200D920E94C80881110E94F809A0913B070A
S1130930B0913C07CD91CDBFDD91DEBFFF91EF912A
S1130940DF91CF91BF91AF919F918F917F916F91E3
S11309505F914F913F912F911F910F91FF90EF90D5
S1130960DF90CF90BF90AF909F908F907F906F90CB
S11309705F904F903F902F901F900F900FBE0F905D
S113098008950E94650418950FB6F8940F92FC011F
S1130990928D0F900FBE81E0911180E008950F9326
S11309A01F93CF93DF93EC01042F1A8D4C8D4423B6
S11309B0B1F150E0011115C08A819B810E94970B0F
S11309C02C8D8A819B81820F911D9B838A832C812C
S11309D03D818217930718F1888199819B838A83CB
S11309E01EC08E819F810E94970B8C8D90E0919503
S11309F0819591092E813F81280F391F3F832E83D2
S1130A00488159812417350730F42C813D81820FA8
S1130A10931F9F838E83023011F4111111501F5FB5
S1130A201A8F80E0DF91CF911F910F910895EF927B
S1130A30FF921F93CF93DF93EC010FB6F8940F92BC
S1130A401E8D7C0181E1E80EF11C11165CF489898C
S1130A50882341F0C7010E94A20A81110E94200B41
S1130A601150F3CF8FEF8E8F0F900FBE0FB6F89407
S1130A700F921D8D7E0188E0E80EF11C11165CF4C6
S1130A808885882341F0C7010E94A20A81110E942F
S1130A90200B1150F3CF8FEF8D8F0F900FBEDF918E
S1130AA0CF911F91FF90EF900895CF93DF93EC01C6
S1130AB00FB6F8940F92488159818B8D7C8D9A01E1
S1130AC0879F200D311D11243D832C831A8E5B8357
S1130AD04A8390E00197789F9001799F300D11240B
S1130AE0CA01820F931F9F838E838FEF8D8F8E8F0A
S1130AF061110CC08885882389F0CE0108960E9474
S1130B00A20A882359F00E940C0408C0CE0108965A
S1130B100E943802CE0141960E9438020F900FBE07
S1130B2081E0DF91CF9108950F931F93CF93DF93CB
S1130B30082F162F662321F0869FC001112402C0BE
S1130B4080E090E04F960E941301EC01009771F051
S1130B50111103C09983888303C04F9699838883B6
S1130B600B8F1C8F61E0CE010E945505CE01DF91F1
S1130B70CF911F910F910895AF92BF92CF92DF92C0
S1130B80FF920F931F93CF93DF9300D000D01F9257
S1130B90CDB7DEB78C016B015D834C83F22E80E010
S1130BA0580198E0A90EB11C0FB6F8940F92F80101
S1130BB0228D938D291718F0F2E0FF1214C04F2DE7
S1130BC0B601C8010E94CF04F8019189992321F04C
S1130BD0C80141960E94A20A81110E940C040F9040
S1130BE00FBE81E050C02C813D81232B19F40F905E
S1130BF00FBE48C0811104C0CE0101960E94E20AD2
S1130C000F900FBE0E94C2080FB6F8940F92F8011D
S1130C10858D8F3F09F4158EF801868D8F3F09F479
S1130C20168E0F900FBEBE016C5F7F4FCE010196F2
S1130C300E94ED0A811121C00FB6F8940F92F801B9
S1130C40928D0F900FBE838D981311C06C817D819E
S1130C50C5010E94910AC8010E9417050E947409E7
S1130C60882311F081E0A0CF0E940C04FBCFC801BF
S1130C700E9417050E947409F5CFC8010E94170548
S1130C800E94740980E00F900F900F900F900F90C6
S1130C90DF91CF911F910F91FF90DF90CF90BF9084
S1130CA0AF900895EF92FF920F931F93CF93DF932A
S1130CB000D000D01F92CDB7DEB78C017D836C834A
S1130CC090E0780181E1E80EF11C0FB6F8940F92E0
S1130CD0F801828D882381F08150828F808588235A
S1130CE039F0C80108960E94A20A81110E940C04DE
S1130CF00F900FBE81E050C02C813D81232B19F44D
S1130D000F900FBE48C0911104C0CE0101960E94FD
S1130D10E20A0F900FBE0E94C2080FB6F8940F9219
S1130D20F801858D8F3F09F4158EF801868D8F3F6C
S1130D3009F4168E0F900FBEBE016C5F7F4FCE017B
S1130D4001960E94ED0A81111CC0C8010E94C404CE
S1130D50882389F06C817D81C7010E94910AC801B2
S1130D600E9417050E947409882311F091E0ADCF09
S1130D700E940C04FBCFC8010E9417050E9474094D
S1130D80F5CFC8010E9417050E947409C8010E948A
S1130D90C404882359F380E00F900F900F900F90B4
S1130DA00F90DF91CF911F910F91FF90EF900895D5
S1130DB06F986E9A6D9A6C9A6B986A9841E064E0A9
S1130DC081E00E94490041E065E081E00E94490021
S1130DD040E066E081E00E94490041E067E081E094
S1130DE00C94490069986898709A08958FB9779B14
S1130DF0FECF0895E0910307F091040780818111EB
S1130E0003C08FEF9FEF0CC0E0910307F09104073C
S1130E100580F681E02D0680F781E02D82819381A3
S1130E209093DB068093DA060895FF920F931F9345
S1130E30CF93DF93EC01F62E0091E2061091E306C6
S1130E4080913B0790913C0702960E94A302CF3FFA
S1130E508FEFD80789F4FF2079F060913B077091F8
S1130E603C076E5F7F4F85EE96E0DF91CF911F9137
S1130E700F91FF900C944A02C00FD11FE0913B07E1
S1130E80F0913C07D383C28360913B0770913C0788
S1130E90C017D10768F480910107909102076E5F33
S1130EA07F4FDF91CF911F910F91FF900C946B02B4
S1130EB080910307909104076E5F7F4F0E946B023D
S1130EC08091DA069091DB06C817D90720F4D093F5
S1130ED0DB06C093DA06DF91CF911F910F91FF904B
S1130EE008958091EE068823E1F30FB6F8940F92EB
S1130EF0E091F406F091F506C681D781CE01029601
S1130F000E94A3028091E40681508093E4068091BC
S1130F10EE0681508093EE060F900FBE8F89988D58
S1130F200E944501CE010E944501DBCF4F925F92A2
S1130F306F927F928F929F92AF92BF92CF92DF92E5
S1130F40EF92FF920F93CF93DF934C016B015A0101
S1130F502901CA010E9413013C01892B09F4D7C05D
S1130F6088E290E00E941301EC01009789F0788EEA
S1130F706F8A21E0A21AB108A60CB71CC114D104CF
S1130F80C9F0BC01675E7F4FF601C601089607C031
S1130F90C3010E944501BBC0E817F90749F09F014E
S1130FA04191DB014D93BD01D9012C912111F4CF65
S1130FB018A201C0198E043008F003E00E8B6E01F4
S1130FC0B2E0CB0ED11CC6010E944602CE010C96A3
S1130FD00E944602D987C88784E090E0801B91096B
S1130FE09D878C87DB8BCA8B1AA219A21BA21CA219
S1130FF01DA21EA21FA2A201B401C5010E946A0380
S113100099838883E114F10419F0F701D183C08333
S11310100FB6F8940F928091E4068F5F8093E406F4
S113102080913B0790913C07892BD1F5D0933C07E5
S1131030C0933B078091E406813009F041C087E109
S113104097E00E94380280E297E00E94380289E229
S113105097E00E94380282E397E00E9438028EE013
S113106097E00E94380285E097E00E94380288EFFA
S113107096E00E9438028FEE96E00E94380285EED8
S113108096E00E9438028EE097E0909304078093E4
S1131090030785E097E0909302078093010710C04F
S11310A08091E00681110CC0E0913B07F0913C0770
S11310B096898E89891720F0D0933C07C0933B070B
S11310C08091DC068F5F8093DC068E899091E10627
S11310D0981710F48093E106F9E08F9FC001112462
S11310E0B601895E984F0E944A020F900FBE80910C
S11310F0E006882351F0E0913B07F0913C07968984
S11311008E89981710F40E940C0481E001C08FEFBF
S1131110DF91CF910F91FF90EF90DF90CF90BF9030
S1131120AF909F908F907F906F905F904F900895B5
S1131130EF92FF920F9388EDE82E86E0F82E00E000
S113114020E030E042E350E066EE70E081E797E0B3
S11311500E949607813091F4F8942FEF3FEF30937B
S1131160DB062093DA068093E0061092E3061092E1
S1131170E2060F91FF90EF900C94D6030F91FF902D
S1131180EF9008958091D7068F5F8093D7060895D6
S1131190CF92DF92EF92FF920F931F93CF93DF933F
S11311A08091D70681118CC00091E2061091E3066C
S11311B00F5F1F4F1093E3060093E206011511051C
S11311C0B9F48091030790910407209101073091AD
S11311D00207309304072093030790930207809338
S11311E001078091DD068F5F8093DD060E94FA0679
S11311F08091DA069091DB06C0E00817190708F41D
S11312004FC0D9E0E0910307F09104078081811178
S113121003C08FEF9FEF11C0E0910307F091040723
S11312200580F681E02DE680F780D70112968D9136
S11312309C9113970817190728F49093DB06809361
S1131240DA062EC06701B2E0CB0ED11CC6010E94A3
S1131250A302F70184899589892B21F0C7010C9693
S11312600E94A302D70156968C919091E10698179B
S113127010F48093E106D89FC0011124B601895E61
S1131280984F0E944A02E0913B07F0913C07D70136
S113129056969C918689981708F4B4CFC1E0B2CFD2
S11312A0E0913B07F0913C07E689B9E0EB9FF00140
S11312B01124E95EF84F8081823040F0C1E006C01D
S11312C08091DF068F5F8093DF06C0E08091DE06A9
S11312D08111C1E08C2FDF91CF911F910F91FF906D
S11312E0EF90DF90CF900895EF92FF920F931F93AA
S11312F0CF93DF930FB6F8940F928091D706815065
S11313008093D7068091D706882311F080E052C0DD
S11313108091E4068823D1F3C0E0D0E089E0F82E80
S1131320EE24E3948091F806882351F1E091FD06C0
S1131330F091FE06C681D781CE010C960E94A302CD
S11313408E010E5F1F4FC8010E94A3028E899091E7
S1131350E106981710F48093E106F89EC001112469
S1131360B801895E984F0E944A02E0913B07F091D0
S11313703C079E8986899817A8F2E092DE06D2CFB0
S1131380CD2B11F00E94FA06C091DF06CC2351F058
S1131390D1E00E94C8088111D093DE06C150C9F77C
S11313A01092DF068091DE06882309F4AFCF0E94F5
S11313B00C0481E00F900FBEDF91CF911F910F912C
S11313C0FF90EF900895CF93DF93EC01892B19F4EC
S11313D00E940C040AC00E94C20860E0CE010E9470
S11313E015070E947409882399F3DF91CF9108951A
S11313F08091D706882321F081E08093DE0608954A
S11314001092DE068091E10669E0482F50E0649F67
S11314109001659F300D1124F901E95EF84F908128
S1131420911102C08150F1CFA181B28112960D9029
S1131430BC91A02DB283A183265E384FA217B307B7
S113144031F412962D913C9113973283218399E0C4
S1131450949FF001959FF00D1124E95EF84F0180EF
S1131460F281E02D2681378130933C0720933B079E
S11314708093E10608950F931F93CF93DF93EC01BC
S11314800FB6F8940F92892B21F4C0913B07D091A9
S11314903C078E010E5F1F4FC8010E94A3028C8976
S11314A09D89892B21F0CE010C960E94A302B801DC
S11314B085EE96E00E944A028FA1813009F41FA2B2
S11314C00F900FBE8091E006882339F00FB6F89490
S11314D00F920E94FA060F900FBE80913B079091E5
S11314E03C07C817D907C1F48091E006882319F096
S11314F00E940C0411C09091E5068091E4069813B3
S113150005C010923C0710923B0706C0DF91CF91B3
S11315101F910F910C94F809DF91CF911F910F91B6
S11315200895CF93DF93EB0160913B0770913C07E3
S1131530645F7F4F0E946B0261E0CE01DF91CF9127
S11315400C9415070F931F93CF93DF93DC0115962B
S1131550ED91FC911697C681D7818E01045F1F4FD0
S1131560C8010E94A3028091D706811114C00A50B9
S11315701109C8010E94A3028E899091E10698176F
S113158010F48093E106B9E08B9FC0011124B801E7
S1131590895E984F03C0B80188EF96E00E944A0222
S11315A0E0913B07F0913C079E898689891720F4D6
S11315B081E08093DE0601C080E0DF91CF911F912E
S11315C00F9108952091DD06FC0120832091E2060D
S11315D03091E306328321830895CF93DF930FB6CE
S11315E0F8940F924091E2065091E306DB012D91AD
S11315F03C912F3FBFEF3B07D9F0EC01E981FA8121
S1131600A091DD06B881BA1719F04E175F0790F460
S11316104E1B5F0BFB014217530738F4241B350B99
S1131620318320830E94E20A03C01182108202C027
S113163080E001C081E00F900FBEDF91CF9108954B
S113164081E08093DE0608951CB880B5806880BD73
S113165080B58F7B80BD80B58F7D80BD80B58F7E4A
S113166080BD80B5877F80BD80B5846080BD80B536
S1131670826080BD55985798539A549A41E061E02E
S113168083E00E94490040E060E083E00C9449005C
S113169087E689B908955F9BFECF8CB108951F92A8
S11316A00F920FB60F9211248F939F938CE290E0C8
S11316B09093400780933F079F918F910F900FBEA7
S11316C00F901F9018951F920F920FB60F9211242E
S11316D02F933F934F935F936F937F938F939F9336
S11316E0AF93BF93CF93DF93EF93FF938CE290E09C
S11316F090933E0780933D07C0914107D0914207E4
S11317000E944B0BFE010995FF91EF91DF91CF9160
S1131710BF91AF919F918F917F916F915F914F9105
S11317203F912F910F900FBE0F901F901895FB01C2
S1131730DC0102C001900D9241505040D8F7089549
S1071740F894FFCF47
S11317444C4544313A2031004C4544323A2032006D
S11317544C4544204F4E3A4F004C454420434C4F93
S113176453453A4300696E697469616C697A6174BA
S1131774696F6E0073656C65637420796F7572208C
S11317846C656400535049205472616E736D6974BE
S1131794207468652073656C656374696F6E206F6B
S11317A466206C65640073656C6563742074686595
S11317B4206F7065726174696F6E206F662074683F
S10F17C465206C65640049444C4500003D
S9030000FC
