S013000052544F535F4D61737465722E73726563FE
S11300000C942A000C9447000C9447000C9447006D
S11300100C9447000C9447000C9447000C94FD0486
S11300200C9447000C9447000C9447000C94470030
S11300300C9447000C94FC080C94E8080C944700BA
S11300400C9447000C9447000C9447000C94470010
S11300500C94470011241FBECFE5D8E0DEBFCDBF0E
S113006011E0A0E6B0E0E4E6F2E102C005900D92F2
S1130070A835B107D9F727E0A8E5B1E001C01D9282
S1130080A63EB207E1F70E942B030C9430090C94AE
S11300900000442379F1413009F05FC0813079F0E8
S11300A028F08230A9F08330E1F008952AB381E08A
S11300B090E001C0880F6A95EAF7822B2CC027B321
S11300C081E090E001C0880F6A95EAF7822B2EC088
S11300D024B381E090E001C0880F6A95EAF7822B8F
S11300E030C021B381E090E001C0880F6A95EAF73F
S11300F0822B32C0813089F028F08230C9F08330FD
S113010011F108952AB381E090E001C0880F6A9547
S1130110EAF7809582238ABB089527B381E090E0B3
S113012001C0880F6A95EAF78095822387BB0895FA
S113013024B381E090E001C0880F6A95EAF78095C6
S1130140822384BB089521B381E090E001C0880F2D
S11301506A95EAF78095822381BB0895442379F157
S1130160413009F05FC0813079F028F08230A9F085
S11301708330E1F008952BB381E090E001C0880F53
S11301806A95EAF7822B2CC028B381E090E001C085
S1130190880F6A95EAF7822B2EC025B381E090E0A0
S11301A001C0880F6A95EAF7822B30C022B381E040
S11301B090E001C0880F6A95EAF7822B32C0813043
S11301C089F028F08230C9F0833011F108952BB3FF
S11301D081E090E001C0880F6A95EAF78095822358
S11301E08BBB089528B381E090E001C0880F6A9525
S11301F0EAF78095822388BB089525B381E090E0D7
S113020001C0880F6A95EAF78095822385BB08951B
S113021022B381E090E001C0880F6A95EAF78095E7
S1130220822382BB0895CF93DF93EC010E94EE06F4
S11302308091580190915901892B31F48DE591E019
S1130240909359018093580120915A0130915B0198
S1130250C9018C0F9D1F8B3D45E0940770F428174E
S1130260390758F4C0915801D0915901C20FD31FD6
S113027090935B0180935A0102C0C0E0D0E00E94D9
S1130280A007CE01DF91CF9108950895CF93C82F91
S113029040E061E081E00E94AE0040E062E081E085
S11302A00E94AE0040E063E081E00E94AE008BB3A8
S11302B09C2F907F8F70892B8BBB41E063E081E0A2
S11302C00E94AE008FE99FE00197F1F700C00000A3
S11302D040E063E081E00E94AE002BB330E1C39FB5
S11302E0C0011124922F9F70892B8BBB41E063E0E6
S11302F081E00E94AE008FE99FE00197F1F700C012
S1130300000040E063E081E00E94AE008FE19EE4E3
S11303100197F1F700C00000CF91089541E061E03A
S113032081E00E94490041E062E081E00E944900CE
S113033041E063E081E00E94490041E064E080E044
S11303400E94490041E065E080E00E94490041E0EC
S113035066E080E00E94490041E067E080E00E949E
S113036049002FEF81EE94E0215080409040E1F766
S113037000C0000083E30E94460182E30E9446011C
S113038088E20E9446018CE00E94460181E00E94BE
S1130390460186E00E94460182E00C944601CF9318
S11303A0C82F41E061E081E00E94AE0040E062E0DD
S11303B081E00E94AE0040E063E081E00E94AE0074
S11303C08C2F807F8BBB41E063E081E00E94AE0014
S11303D08FE99FE00197F1F700C0000040E063E07F
S11303E081E00E94AE00C295C07FCBBB41E063E0D8
S11303F081E00E94AE008FE99FE00197F1F700C011
S1130400000040E063E081E00E94AE008FE19EE4E2
S11304100197F1F700C00000CF9108950F931F9347
S1130420CF938C01C0E0F801EC0FF11D808188238B
S113043021F00E94CF01CF5FF6CFCF911F910F9192
S11304400895CF93DF9300D0CDB7DEB790E89983BA
S113045090EC9A83FE01E80FF11D8181860F0F90C5
S11304600F90DF91CF910C94460181E00C944601EA
S1130470FC010396928381832FEF3FEF3483238320
S1130480968385839087878310820895FC01118663
S113049010860895CF93DF939C01FB01DC01119634
S11304A0CD91DC911297D383C2838C819D819583F6
S11304B084838C819D81DC0113967C936E931297C7
S11304C07D836C8331872087F90180818F5F8083EE
S11304D0DF91CF9108950F931F93CF93DF938C01F6
S11304E0FB01808191818F3F2FEF920721F4E80176
S11304F0AF81B8850EC0D801139612962D913C9108
S11305001397E901488159818417950710F0D9019F
S1130510F4CF12968D919C91139793838283EC016F
S1130520FD83EC83B583A4831396FC93EE93129717
S113053011870087F80180818F5F8083DF91CF91DD
S11305401F910F910895CF93DF93FC01A085B1858E
S11305508281938124813581EC013D832C83C48184
S1130560D5819B838A8311968D919C911297E8176C
S1130570F90721F41296DC93CE9311971186108615
S11305808C9181508C938C91DF91CF9108950E942E
S11305908E010E94BD080E94E1080E9400050E948D
S11305A01A0580914607909147070E946708EFCF8C
S11305B00E94350280E690E00E940E0260E081E035
S11305C00E94210288E690E00E940E0284E190E0FD
S11305D00E940F08EDCF0E94350280E790E00E9450
S11305E00E0260E081E00E94210289E790E00E940F
S11305F00E028AE390E00E940F08EDCF0E94E40807
S11306008093490783E090E00E940F08F7CF0E948F
S1130610E4088093490786E290E00E940F08F7CF30
S1130620809149070E941E0587E090E00E940F0810
S1130630F7CF0E9422058093480785E190E00E944D
S11306400F08F7CFEC010E94220588838AE290E02C
S11306500E940F08F8CFE0904607F090470708E0A3
S113066020E030E042E350E066E870E087EC92E09E
S11306700E94C205E0904407F090450707E020E09F
S113068030E042E350E065E970E088ED92E00E94DA
S1130690C205E0904207F090430701E020E030E01B
S11306A042E350E060EA70E08EEF92E00E94C205FF
S11306B0E0904007F090410706E020E030E042E39C
S11306C050E060EB70E080E193E00E94C205E090AE
S11306D03E07F0903F0705E020E030E042E350E0C1
S11306E062ED70E089E193E00E94C205E0903C076E
S11306F0F0903D0704E020E030E042E350E067EF93
S113070070E08BEE92E00E94C205E0903A07F09010
S11307103B0703E020E030E042E350E062E071E0B8
S113072087E093E00E94C205E0903807F090390713
S113073002E020E030E042E350E062E271E082E275
S113074093E00E94C2050E94C406FFCF31E1FC0180
S11307503083319722E220833197A3E3A08331973A
S113076060833197708331971082319760E860839A
S113077031971082319762E06083319763E0608340
S1130780319764E06083319765E06083319766E078
S11307906083319767E06083319768E060833197C5
S11307A069E06083319760E16083319730833197EA
S11307B032E13083319733E13083319734E1308350
S11307C0319735E13083319736E13083319737E122
S11307D03083319738E13083319739E13083319771
S11307E030E23083319731E230833197208331977F
S11307F023E220833197408331975083319726E257
S11308002083319727E22083319728E22083319790
S113081029E22083319720E32083319721E3208349
S11308208697089581E68BBD87EA8ABD8BE08EBDED
S113083089B7806189BFA091D207B091D307CD91C8
S1130840CDBFDD91DEBFFF91EF91DF91CF91BF91DD
S1130850AF919F918F917F916F915F914F913F9154
S11308602F911F910F91FF90EF90DF90CF90BF9049
S1130870AF909F908F907F906F905F904F903F903C
S11308802F901F900F900FBE0F90089581E0089550
S11308900F920FB6F8940F921F9211242F923F9249
S11308A04F925F926F927F928F929F92AF92BF927C
S11308B0CF92DF92EF92FF920F931F932F933F9368
S11308C04F935F936F937F938F939F93AF93BF9354
S11308D0CF93DF93EF93FF93A091D207B091D30707
S11308E00DB60D920EB60D920E942408A091D20767
S11308F0B091D307CD91CDBFDD91DEBFFF91EF91D4
S1130900DF91CF91BF91AF919F918F917F916F9123
S11309105F914F913F912F911F910F91FF90EF9015
S1130920DF90CF90BF90AF909F908F907F906F900B
S11309305F904F903F902F901F900F900FBE0F909D
S113094008950F920FB6F8940F921F9211242F92CC
S11309503F924F925F926F927F928F929F92AF924B
S1130960BF92CF92DF92EF92FF920F931F932F9338
S11309703F934F935F936F937F938F939F93AF9323
S1130980BF93CF93DF93EF93FF93A091D207B091DE
S1130990D3070DB60D920EB60D920E94F406811186
S11309A00E942408A091D207B091D307CD91CDBF66
S11309B0DD91DEBFFF91EF91DF91CF91BF91AF91B8
S11309C09F918F917F916F915F914F913F912F9163
S11309D01F910F91FF90EF90DF90CF90BF90AF9059
S11309E09F908F907F906F905F904F903F902F904B
S11309F01F900F900FBE0F9008950E94A1041895A8
S1130A006F986E9A6D9A6C9A6B986A9841E064E05C
S1130A1081E00E94490041E065E081E00E944900D4
S1130A2040E066E081E00E94490041E067E081E047
S1130A300C94490069986898709A08958FB9779BC7
S1130A40FECF0895779BFECF8FB10895E09176078E
S1130A50F09177078081811103C08FEF9FEF0CC065
S1130A60E0917607F09177070580F681E02D068006
S1130A70F781E02D8281938190934E0780934D07F7
S1130A800895FF920F931F93CF93DF93EC01F62EFB
S1130A9000915507109156078091D2079091D30782
S1130AA002960E94A302CF3F8FEFD80789F4FF205C
S1130AB079F06091D2077091D3076E5F7F4F88E51C
S1130AC097E0DF91CF911F910F91FF900C944A0210
S1130AD0C00FD11FE091D207F091D307D383C28313
S1130AE06091D2077091D307C017D10768F4809141
S1130AF07407909175076E5F7F4FDF91CF911F91BF
S1130B000F91FF900C946B02809176079091770778
S1130B106E5F7F4F0E946B0280914D0790914E074C
S1130B20C817D90720F4D0934E07C0934D07DF911F
S1130B30CF911F910F91FF900895809161078823B1
S1130B40E1F30FB6F8940F92E0916707F09168070C
S1130B50C681D781CE0102960E94A30280915707D5
S1130B60815080935707809161078150809361077A
S1130B700F900FBE8F89988D0E944501CE010E946F
S1130B804501DBCF4F925F926F927F928F929F923B
S1130B90AF92BF92CF92DF92EF92FF920F931F9387
S1130BA0CF93DF934C016B015A012901CA010E94C2
S1130BB013013C01892B09F4D5C088E290E00E941E
S1130BC01301EC01009789F0788E6F8A21E0A21A54
S1130BD0B108A60CB71CC114D104C9F0BC01675EEE
S1130BE07F4FF601C601089607C0C3010E94450164
S1130BF0B9C08E179F0749F09F014191DB014D93C6
S1130C00BD01D9012C912111F4CF18A201C0198E74
S1130C10083008F007E00E8B6E01B2E0CB0ED11C59
S1130C20C6010E944602CE010C960E944602D98754
S1130C30C88788E090E0801B91099D878C87DB8BB7
S1130C40CA8B1AA219A21BA21CA21DA21EA21FA219
S1130C50A201B401C5010E94A60399838883E1140B
S1130C60F10419F0F701D183C0830FB6F8940F9201
S1130C70809157078F5F809357078091D207909197
S1130C80D307892BC1F5D093D307C093D2078091A2
S1130C905707813009F03FC00AE817E082EDE82EDB
S1130CA087E0F82EC8010E943802075F1F4FE01644
S1130CB0F106C1F781E897E00E94380288E797E0DF
S1130CC00E9438028BE697E00E94380282E697E0A1
S1130CD00E94380288E597E00E94380281E897E094
S1130CE0909377078093760788E797E0909375074A
S1130CF08093740710C08091530781110CC0E09158
S1130D00D207F091D30796898E89891720F0D09362
S1130D10D307C093D20780914F078F5F80934F070B
S1130D208E8990915407981710F480935407F9E032
S1130D308F9FC0011124B6018657984F0E944A0222
S1130D400F900FBE80915307882351F0E091D20792
S1130D50F091D30796898E89981710F40E9448045D
S1130D6081E001C08FEFDF91CF911F910F91FF9030
S1130D70EF90DF90CF90BF90AF909F908F907F9037
S1130D806F905F904F900895EF92FF920F938BE4D2
S1130D90E82E87E0F82E00E020E030E042E350E067
S1130DA063E571E08DE995E00E94C205813091F41C
S1130DB0F8942FEF3FEF30934E0720934D07809325
S1130DC0530710925607109255070F91FF90EF901A
S1130DD00C9412040F91FF90EF90089580914A07AC
S1130DE08F5F80934A070895CF92DF92EF92FF922C
S1130DF00F931F93CF93DF9380914A0781118CC087
S1130E0000915507109156070F5F1F4F1093560717
S1130E100093550701151105B9F480917607909157
S1130E2077072091740730917507309377072093E3
S1130E3076079093750780937407809150078F5FAE
S1130E40809350070E94260580914D0790914E078C
S1130E50C0E00817190708F44FC0D9E0E0917607FD
S1130E60F09177078081811103C08FEF9FEF11C04C
S1130E70E0917607F09177070580F681E02DE68012
S1130E80F780D70112968D919C9113970817190733
S1130E9028F490934E0780934D072EC06701B2E06B
S1130EA0CB0ED11CC6010E94A302F7018489958947
S1130EB0892B21F0C7010C960E94A302D7015696F4
S1130EC08C9190915407981710F480935407D89FED
S1130ED0C0011124B6018657984F0E944A02E0913E
S1130EE0D207F091D307D70156969C91868998171B
S1130EF008F4B4CFC1E0B2CFE091D207F091D307A8
S1130F00E689B9E0EB9FF0011124E657F84F8081A0
S1130F10823040F0C1E006C0809152078F5F809319
S1130F205207C0E0809151078111C1E08C2FDF91FD
S1130F30CF911F910F91FF90EF90DF90CF90089584
S1130F40EF92FF920F931F93CF93DF930FB6F89412
S1130F500F9280914A07815080934A0780914A07F3
S1130F60882311F080E052C0809157078823D1F381
S1130F70C0E0D0E089E0F82EEE24E39480916B0782
S1130F80882351F1E0917007F0917107C681D781F0
S1130F90CE010C960E94A3028E010E5F1F4FC80162
S1130FA00E94A3028E8990915407981710F480939D
S1130FB05407F89EC0011124B8018657984F0E9427
S1130FC04A02E091D207F091D3079E898689981747
S1130FD0A8F2E0925107D2CFCD2B11F00E94260542
S1130FE0C0915207CC2351F0D1E00E94F406811144
S1130FF0D0935107C150C9F71092520780915107FD
S1131000882309F4AFCF0E94480481E00F900FBEFB
S1131010DF91CF911F910F91FF90EF900895CF939F
S1131020DF93EC01892B19F40E9448040AC00E9442
S1131030EE0660E0CE010E9441050E94A0078823CD
S113104099F3DF91CF91089580914A07882321F085
S113105081E08093510708951092510780915407BD
S113106069E0482F50E0649F9001659F300D112482
S1131070F901E657F84F9081911102C08150F1CFE8
S1131080A181B28112960D90BC91A02DB283A1834F
S11310902357384FA217B30731F412962D913C9180
S11310A013973283218399E0949FF001959FF00D6B
S11310B01124E657F84F0180F281E02D2681378113
S11310C03093D3072093D2078093540708950F9346
S11310D01F93CF93DF93EC010FB6F8940F92892BF3
S11310E021F4C091D207D091D3078E010E5F1F4F18
S11310F0C8010E94A3028C899D89892B21F0CE010D
S11311000C960E94A302B80188E597E00E944A0267
S11311108FA1813009F41FA20F900FBE8091530755
S1131120882339F00FB6F8940F920E9426050F9089
S11311300FBE8091D2079091D307C817D907C1F485
S113114080915307882319F00E94480411C090919C
S1131150580780915707981305C01092D30710922F
S1131160D20706C0DF91CF911F910F910C942408F0
S1131170DF91CF911F910F9108951CB880B58068BD
S113118080BD80B58F7B80BD80B58F7D80BD80B5EF
S11311908F7E80BD80B5877F80BD80B5846080BD33
S11311A080B5826080BD55985798539A549A41E00F
S11311B061E083E00E94490040E060E083E00C9439
S11311C0490087E689B908955F9BFECF8CB10895E5
S11311D01F920F920FB60F9211248F939F938CE25C
S11311E090E09093D7078093D6079F918F910F90AB
S11311F00FBE0F901F9018951F920F920FB60F926B
S113120011242F933F934F935F936F937F938F9307
S11312109F93AF93BF93CF93DF93EF93FF938CE2AE
S113122090E09093D5078093D407C091D807D091CC
S1131230D9070E94E408FE010995FF91EF91DF911F
S1131240CF91BF91AF919F918F917F916F915F915A
S11312504F913F912F910F900FBE0F901F901895B3
S1071260F894FFCF2C
S11312644C4544313A2031004C4544323A20320052
S11312744C4544204F4E3A4F004C45443220434C95
S11312844F53453A4300696E697469616C697A61C4
S113129474696F6E006D65737361676520746F2084
S11312A473656C65637420796F7572206C65640072
S11312B4535049205472616E736D69742074686567
S11312C42073656C656374696F6E206F66206C654A
S11312D4640061636B6E6F776C6564676520746F1B
S11312E420656E737572652074686520636F6E6E15
S11312F4656374696F6E006D6573736167652074EB
S11313046F2073656C65637420746865206F706501
S1131314726174696F6E206F6620746865206C65F1
S1131324640020535049207472616E736D69742093
S1131334746F2073656C65637420746865206F70C2
S113134465726174696F6E206F6620746865206CC1
S10B135465640049444C4500A6
S9030000FC
